{
  "contractName": "SidWarrior",
  "abi": [
    {
      "inputs": [],
      "stateMutability": "nonpayable",
      "type": "constructor"
    },
    {
      "anonymous": false,
      "inputs": [
        {
          "indexed": true,
          "internalType": "address",
          "name": "owner",
          "type": "address"
        },
        {
          "indexed": true,
          "internalType": "address",
          "name": "approved",
          "type": "address"
        },
        {
          "indexed": true,
          "internalType": "uint256",
          "name": "tokenId",
          "type": "uint256"
        }
      ],
      "name": "Approval",
      "type": "event"
    },
    {
      "anonymous": false,
      "inputs": [
        {
          "indexed": true,
          "internalType": "address",
          "name": "owner",
          "type": "address"
        },
        {
          "indexed": true,
          "internalType": "address",
          "name": "operator",
          "type": "address"
        },
        {
          "indexed": false,
          "internalType": "bool",
          "name": "approved",
          "type": "bool"
        }
      ],
      "name": "ApprovalForAll",
      "type": "event"
    },
    {
      "anonymous": false,
      "inputs": [
        {
          "indexed": true,
          "internalType": "address",
          "name": "previousOwner",
          "type": "address"
        },
        {
          "indexed": true,
          "internalType": "address",
          "name": "newOwner",
          "type": "address"
        }
      ],
      "name": "OwnershipTransferred",
      "type": "event"
    },
    {
      "anonymous": false,
      "inputs": [
        {
          "indexed": true,
          "internalType": "address",
          "name": "from",
          "type": "address"
        },
        {
          "indexed": true,
          "internalType": "address",
          "name": "to",
          "type": "address"
        },
        {
          "indexed": true,
          "internalType": "uint256",
          "name": "tokenId",
          "type": "uint256"
        }
      ],
      "name": "Transfer",
      "type": "event"
    },
    {
      "inputs": [
        {
          "internalType": "address",
          "name": "to",
          "type": "address"
        },
        {
          "internalType": "uint256",
          "name": "tokenId",
          "type": "uint256"
        }
      ],
      "name": "approve",
      "outputs": [],
      "stateMutability": "nonpayable",
      "type": "function"
    },
    {
      "inputs": [
        {
          "internalType": "address",
          "name": "owner",
          "type": "address"
        }
      ],
      "name": "balanceOf",
      "outputs": [
        {
          "internalType": "uint256",
          "name": "",
          "type": "uint256"
        }
      ],
      "stateMutability": "view",
      "type": "function",
      "constant": true
    },
    {
      "inputs": [],
      "name": "baseURI",
      "outputs": [
        {
          "internalType": "string",
          "name": "",
          "type": "string"
        }
      ],
      "stateMutability": "view",
      "type": "function",
      "constant": true
    },
    {
      "inputs": [
        {
          "internalType": "uint256",
          "name": "tokenId",
          "type": "uint256"
        }
      ],
      "name": "getApproved",
      "outputs": [
        {
          "internalType": "address",
          "name": "",
          "type": "address"
        }
      ],
      "stateMutability": "view",
      "type": "function",
      "constant": true
    },
    {
      "inputs": [
        {
          "internalType": "address",
          "name": "owner",
          "type": "address"
        },
        {
          "internalType": "address",
          "name": "operator",
          "type": "address"
        }
      ],
      "name": "isApprovedForAll",
      "outputs": [
        {
          "internalType": "bool",
          "name": "",
          "type": "bool"
        }
      ],
      "stateMutability": "view",
      "type": "function",
      "constant": true
    },
    {
      "inputs": [],
      "name": "name",
      "outputs": [
        {
          "internalType": "string",
          "name": "",
          "type": "string"
        }
      ],
      "stateMutability": "view",
      "type": "function",
      "constant": true
    },
    {
      "inputs": [],
      "name": "owner",
      "outputs": [
        {
          "internalType": "address",
          "name": "",
          "type": "address"
        }
      ],
      "stateMutability": "view",
      "type": "function",
      "constant": true
    },
    {
      "inputs": [
        {
          "internalType": "uint256",
          "name": "tokenId",
          "type": "uint256"
        }
      ],
      "name": "ownerOf",
      "outputs": [
        {
          "internalType": "address",
          "name": "",
          "type": "address"
        }
      ],
      "stateMutability": "view",
      "type": "function",
      "constant": true
    },
    {
      "inputs": [],
      "name": "renounceOwnership",
      "outputs": [],
      "stateMutability": "nonpayable",
      "type": "function"
    },
    {
      "inputs": [
        {
          "internalType": "address",
          "name": "from",
          "type": "address"
        },
        {
          "internalType": "address",
          "name": "to",
          "type": "address"
        },
        {
          "internalType": "uint256",
          "name": "tokenId",
          "type": "uint256"
        }
      ],
      "name": "safeTransferFrom",
      "outputs": [],
      "stateMutability": "nonpayable",
      "type": "function"
    },
    {
      "inputs": [
        {
          "internalType": "address",
          "name": "from",
          "type": "address"
        },
        {
          "internalType": "address",
          "name": "to",
          "type": "address"
        },
        {
          "internalType": "uint256",
          "name": "tokenId",
          "type": "uint256"
        },
        {
          "internalType": "bytes",
          "name": "_data",
          "type": "bytes"
        }
      ],
      "name": "safeTransferFrom",
      "outputs": [],
      "stateMutability": "nonpayable",
      "type": "function"
    },
    {
      "inputs": [
        {
          "internalType": "address",
          "name": "operator",
          "type": "address"
        },
        {
          "internalType": "bool",
          "name": "approved",
          "type": "bool"
        }
      ],
      "name": "setApprovalForAll",
      "outputs": [],
      "stateMutability": "nonpayable",
      "type": "function"
    },
    {
      "inputs": [
        {
          "internalType": "bytes4",
          "name": "interfaceId",
          "type": "bytes4"
        }
      ],
      "name": "supportsInterface",
      "outputs": [
        {
          "internalType": "bool",
          "name": "",
          "type": "bool"
        }
      ],
      "stateMutability": "view",
      "type": "function",
      "constant": true
    },
    {
      "inputs": [],
      "name": "symbol",
      "outputs": [
        {
          "internalType": "string",
          "name": "",
          "type": "string"
        }
      ],
      "stateMutability": "view",
      "type": "function",
      "constant": true
    },
    {
      "inputs": [
        {
          "internalType": "uint256",
          "name": "index",
          "type": "uint256"
        }
      ],
      "name": "tokenByIndex",
      "outputs": [
        {
          "internalType": "uint256",
          "name": "",
          "type": "uint256"
        }
      ],
      "stateMutability": "view",
      "type": "function",
      "constant": true
    },
    {
      "inputs": [],
      "name": "tokenCounter",
      "outputs": [
        {
          "internalType": "uint256",
          "name": "",
          "type": "uint256"
        }
      ],
      "stateMutability": "view",
      "type": "function",
      "constant": true
    },
    {
      "inputs": [
        {
          "internalType": "address",
          "name": "owner",
          "type": "address"
        },
        {
          "internalType": "uint256",
          "name": "index",
          "type": "uint256"
        }
      ],
      "name": "tokenOfOwnerByIndex",
      "outputs": [
        {
          "internalType": "uint256",
          "name": "",
          "type": "uint256"
        }
      ],
      "stateMutability": "view",
      "type": "function",
      "constant": true
    },
    {
      "inputs": [
        {
          "internalType": "uint256",
          "name": "tokenId",
          "type": "uint256"
        }
      ],
      "name": "tokenURI",
      "outputs": [
        {
          "internalType": "string",
          "name": "",
          "type": "string"
        }
      ],
      "stateMutability": "view",
      "type": "function",
      "constant": true
    },
    {
      "inputs": [],
      "name": "totalSupply",
      "outputs": [
        {
          "internalType": "uint256",
          "name": "",
          "type": "uint256"
        }
      ],
      "stateMutability": "view",
      "type": "function",
      "constant": true
    },
    {
      "inputs": [
        {
          "internalType": "address",
          "name": "from",
          "type": "address"
        },
        {
          "internalType": "address",
          "name": "to",
          "type": "address"
        },
        {
          "internalType": "uint256",
          "name": "tokenId",
          "type": "uint256"
        }
      ],
      "name": "transferFrom",
      "outputs": [],
      "stateMutability": "nonpayable",
      "type": "function"
    },
    {
      "inputs": [
        {
          "internalType": "address",
          "name": "newOwner",
          "type": "address"
        }
      ],
      "name": "transferOwnership",
      "outputs": [],
      "stateMutability": "nonpayable",
      "type": "function"
    },
    {
      "inputs": [
        {
          "internalType": "string[]",
          "name": "tokenURIArr",
          "type": "string[]"
        }
      ],
      "name": "createCollectible",
      "outputs": [],
      "stateMutability": "nonpayable",
      "type": "function"
    }
  ],
  "bytecode": "0x60806040526000600b553480156200001657600080fd5b506040518060400160405280600a81526020017f53696457617272696f72000000000000000000000000000000000000000000008152506040518060400160405280600381526020017f53494400000000000000000000000000000000000000000000000000000000008152506200009b6301ffc9a760e01b620001d660201b60201c565b8160069080519060200190620000b3929190620002b6565b508060079080519060200190620000cc929190620002b6565b50620000e56380ac58cd60e01b620001d660201b60201c565b620000fd635b5e139f60e01b620001d660201b60201c565b6200011563780e9d6360e01b620001d660201b60201c565b5050600062000129620002ae60201b60201c565b905080600a60006101000a81548173ffffffffffffffffffffffffffffffffffffffff021916908373ffffffffffffffffffffffffffffffffffffffff1602179055508073ffffffffffffffffffffffffffffffffffffffff16600073ffffffffffffffffffffffffffffffffffffffff167f8be0079c531659141344cd1fd0a4f28419497f9722a3daafe3b4186f6b6457e060405160405180910390a3506000600b81905550620003da565b63ffffffff60e01b817bffffffffffffffffffffffffffffffffffffffffffffffffffffffff1916141562000242576040517f08c379a00000000000000000000000000000000000000000000000000000000081526004016200023990620003a7565b60405180910390fd5b6001600080837bffffffffffffffffffffffffffffffffffffffffffffffffffffffff19167bffffffffffffffffffffffffffffffffffffffffffffffffffffffff1916815260200190815260200160002060006101000a81548160ff02191690831515021790555050565b600033905090565b828054600181600116156101000203166002900490600052602060002090601f016020900481019282601f10620002f957805160ff19168380011785556200032a565b828001600101855582156200032a579182015b82811115620003295782518255916020019190600101906200030c565b5b5090506200033991906200033d565b5090565b6200036291905b808211156200035e57600081600090555060010162000344565b5090565b90565b600062000374601c83620003c9565b91507f4552433136353a20696e76616c696420696e74657266616365206964000000006000830152602082019050919050565b60006020820190508181036000830152620003c28162000365565b9050919050565b600082825260208201905092915050565b6134d980620003ea6000396000f3fe608060405234801561001057600080fd5b50600436106101425760003560e01c806370a08231116100b8578063a22cb4651161007c578063a22cb46514610377578063b88d4fde14610393578063c87b56dd146103af578063d082e381146103df578063e985e9c5146103fd578063f2fde38b1461042d57610142565b806370a08231146102e5578063715018a6146103155780638da5cb5b1461031f578063919810dd1461033d57806395d89b411461035957610142565b806323b872dd1161010a57806323b872dd146101ff5780632f745c591461021b57806342842e0e1461024b5780634f6ccce7146102675780636352211e146102975780636c0360eb146102c757610142565b806301ffc9a71461014757806306fdde0314610177578063081812fc14610195578063095ea7b3146101c557806318160ddd146101e1575b600080fd5b610161600480360361015c91908101906125d9565b610449565b60405161016e9190612f40565b60405180910390f35b61017f6104b0565b60405161018c9190612f5b565b60405180910390f35b6101af60048036036101aa919081019061262b565b610552565b6040516101bc9190612ed9565b60405180910390f35b6101df60048036036101da919081019061255c565b6105d7565b005b6101e96106ef565b6040516101f691906131fd565b60405180910390f35b61021960048036036102149190810190612456565b610700565b005b6102356004803603610230919081019061255c565b610760565b60405161024291906131fd565b60405180910390f35b61026560048036036102609190810190612456565b6107bb565b005b610281600480360361027c919081019061262b565b6107db565b60405161028e91906131fd565b60405180910390f35b6102b160048036036102ac919081019061262b565b6107fe565b6040516102be9190612ed9565b60405180910390f35b6102cf610835565b6040516102dc9190612f5b565b60405180910390f35b6102ff60048036036102fa91908101906123f1565b6108d7565b60405161030c91906131fd565b60405180910390f35b61031d610996565b005b610327610ad3565b6040516103349190612ed9565b60405180910390f35b61035760048036036103529190810190612598565b610afd565b005b610361610b5d565b60405161036e9190612f5b565b60405180910390f35b610391600480360361038c9190810190612520565b610bff565b005b6103ad60048036036103a891908101906124a5565b610d80565b005b6103c960048036036103c4919081019061262b565b610de2565b6040516103d69190612f5b565b60405180910390f35b6103e7610f65565b6040516103f491906131fd565b60405180910390f35b6104176004803603610412919081019061241a565b610f6b565b6040516104249190612f40565b60405180910390f35b610447600480360361044291908101906123f1565b610fff565b005b6000806000837bffffffffffffffffffffffffffffffffffffffffffffffffffffffff19167bffffffffffffffffffffffffffffffffffffffffffffffffffffffff1916815260200190815260200160002060009054906101000a900460ff169050919050565b606060068054600181600116156101000203166002900480601f0160208091040260200160405190810160405280929190818152602001828054600181600116156101000203166002900480156105485780601f1061051d57610100808354040283529160200191610548565b820191906000526020600020905b81548152906001019060200180831161052b57829003601f168201915b5050505050905090565b600061055d826111ab565b61059c576040517f08c379a0000000000000000000000000000000000000000000000000000000008152600401610593906130fd565b60405180910390fd5b6004600083815260200190815260200160002060009054906101000a900473ffffffffffffffffffffffffffffffffffffffff169050919050565b60006105e2826107fe565b90508073ffffffffffffffffffffffffffffffffffffffff168373ffffffffffffffffffffffffffffffffffffffff161415610653576040517f08c379a000000000000000000000000000000000000000000000000000000000815260040161064a9061319d565b60405180910390fd5b8073ffffffffffffffffffffffffffffffffffffffff166106726111c8565b73ffffffffffffffffffffffffffffffffffffffff1614806106a157506106a08161069b6111c8565b610f6b565b5b6106e0576040517f08c379a00000000000000000000000000000000000000000000000000000000081526004016106d79061307d565b60405180910390fd5b6106ea83836111d0565b505050565b60006106fb6002611289565b905090565b61071161070b6111c8565b8261129e565b610750576040517f08c379a0000000000000000000000000000000000000000000000000000000008152600401610747906131bd565b60405180910390fd5b61075b83838361137c565b505050565b60006107b382600160008673ffffffffffffffffffffffffffffffffffffffff1673ffffffffffffffffffffffffffffffffffffffff16815260200190815260200160002061159390919063ffffffff16565b905092915050565b6107d683838360405180602001604052806000815250610d80565b505050565b6000806107f28360026115ad90919063ffffffff16565b50905080915050919050565b600061082e8260405180606001604052806029815260200161347b6029913960026115dc9092919063ffffffff16565b9050919050565b606060098054600181600116156101000203166002900480601f0160208091040260200160405190810160405280929190818152602001828054600181600116156101000203166002900480156108cd5780601f106108a2576101008083540402835291602001916108cd565b820191906000526020600020905b8154815290600101906020018083116108b057829003601f168201915b5050505050905090565b60008073ffffffffffffffffffffffffffffffffffffffff168273ffffffffffffffffffffffffffffffffffffffff161415610948576040517f08c379a000000000000000000000000000000000000000000000000000000000815260040161093f9061309d565b60405180910390fd5b61098f600160008473ffffffffffffffffffffffffffffffffffffffff1673ffffffffffffffffffffffffffffffffffffffff1681526020019081526020016000206115fb565b9050919050565b61099e6111c8565b73ffffffffffffffffffffffffffffffffffffffff166109bc610ad3565b73ffffffffffffffffffffffffffffffffffffffff1614610a12576040517f08c379a0000000000000000000000000000000000000000000000000000000008152600401610a099061313d565b60405180910390fd5b600073ffffffffffffffffffffffffffffffffffffffff16600a60009054906101000a900473ffffffffffffffffffffffffffffffffffffffff1673ffffffffffffffffffffffffffffffffffffffff167f8be0079c531659141344cd1fd0a4f28419497f9722a3daafe3b4186f6b6457e060405160405180910390a36000600a60006101000a81548173ffffffffffffffffffffffffffffffffffffffff021916908373ffffffffffffffffffffffffffffffffffffffff160217905550565b6000600a60009054906101000a900473ffffffffffffffffffffffffffffffffffffffff16905090565b60008090505b8151811015610b59576000600b549050610b1d3382611610565b610b3a81848481518110610b2d57fe5b602002602001015161162e565b6001600b60008282540192505081905550508080600101915050610b03565b5050565b606060078054600181600116156101000203166002900480601f016020809104026020016040519081016040528092919081815260200182805460018160011615610100020316600290048015610bf55780601f10610bca57610100808354040283529160200191610bf5565b820191906000526020600020905b815481529060010190602001808311610bd857829003601f168201915b5050505050905090565b610c076111c8565b73ffffffffffffffffffffffffffffffffffffffff168273ffffffffffffffffffffffffffffffffffffffff161415610c75576040517f08c379a0000000000000000000000000000000000000000000000000000000008152600401610c6c9061301d565b60405180910390fd5b8060056000610c826111c8565b73ffffffffffffffffffffffffffffffffffffffff1673ffffffffffffffffffffffffffffffffffffffff16815260200190815260200160002060008473ffffffffffffffffffffffffffffffffffffffff1673ffffffffffffffffffffffffffffffffffffffff16815260200190815260200160002060006101000a81548160ff0219169083151502179055508173ffffffffffffffffffffffffffffffffffffffff16610d2f6111c8565b73ffffffffffffffffffffffffffffffffffffffff167f17307eab39ab6107e8899845ad3d59bd9653f200f220920489ca2b5937696c3183604051610d749190612f40565b60405180910390a35050565b610d91610d8b6111c8565b8361129e565b610dd0576040517f08c379a0000000000000000000000000000000000000000000000000000000008152600401610dc7906131bd565b60405180910390fd5b610ddc848484846116a2565b50505050565b6060610ded826111ab565b610e2c576040517f08c379a0000000000000000000000000000000000000000000000000000000008152600401610e239061317d565b60405180910390fd5b6060600860008481526020019081526020016000208054600181600116156101000203166002900480601f016020809104026020016040519081016040528092919081815260200182805460018160011615610100020316600290048015610ed55780601f10610eaa57610100808354040283529160200191610ed5565b820191906000526020600020905b815481529060010190602001808311610eb857829003601f168201915b505050505090506060610ee6610835565b9050600081511415610efc578192505050610f60565b600082511115610f31578082604051602001610f19929190612eb5565b60405160208183030381529060405292505050610f60565b80610f3b856116fe565b604051602001610f4c929190612eb5565b604051602081830303815290604052925050505b919050565b600b5481565b6000600560008473ffffffffffffffffffffffffffffffffffffffff1673ffffffffffffffffffffffffffffffffffffffff16815260200190815260200160002060008373ffffffffffffffffffffffffffffffffffffffff1673ffffffffffffffffffffffffffffffffffffffff16815260200190815260200160002060009054906101000a900460ff16905092915050565b6110076111c8565b73ffffffffffffffffffffffffffffffffffffffff16611025610ad3565b73ffffffffffffffffffffffffffffffffffffffff161461107b576040517f08c379a00000000000000000000000000000000000000000000000000000000081526004016110729061313d565b60405180910390fd5b600073ffffffffffffffffffffffffffffffffffffffff168173ffffffffffffffffffffffffffffffffffffffff1614156110eb576040517f08c379a00000000000000000000000000000000000000000000000000000000081526004016110e290612fbd565b60405180910390fd5b8073ffffffffffffffffffffffffffffffffffffffff16600a60009054906101000a900473ffffffffffffffffffffffffffffffffffffffff1673ffffffffffffffffffffffffffffffffffffffff167f8be0079c531659141344cd1fd0a4f28419497f9722a3daafe3b4186f6b6457e060405160405180910390a380600a60006101000a81548173ffffffffffffffffffffffffffffffffffffffff021916908373ffffffffffffffffffffffffffffffffffffffff16021790555050565b60006111c182600261182e90919063ffffffff16565b9050919050565b600033905090565b816004600083815260200190815260200160002060006101000a81548173ffffffffffffffffffffffffffffffffffffffff021916908373ffffffffffffffffffffffffffffffffffffffff160217905550808273ffffffffffffffffffffffffffffffffffffffff16611243836107fe565b73ffffffffffffffffffffffffffffffffffffffff167f8c5be1e5ebec7d5bd14f71427d1e84f3dd0314c0f7b2291e5b200ac8c7c3b92560405160405180910390a45050565b600061129782600001611848565b9050919050565b60006112a9826111ab565b6112e8576040517f08c379a00000000000000000000000000000000000000000000000000000000081526004016112df9061305d565b60405180910390fd5b60006112f3836107fe565b90508073ffffffffffffffffffffffffffffffffffffffff168473ffffffffffffffffffffffffffffffffffffffff16148061136257508373ffffffffffffffffffffffffffffffffffffffff1661134a84610552565b73ffffffffffffffffffffffffffffffffffffffff16145b8061137357506113728185610f6b565b5b91505092915050565b8273ffffffffffffffffffffffffffffffffffffffff1661139c826107fe565b73ffffffffffffffffffffffffffffffffffffffff16146113f2576040517f08c379a00000000000000000000000000000000000000000000000000000000081526004016113e99061315d565b60405180910390fd5b600073ffffffffffffffffffffffffffffffffffffffff168273ffffffffffffffffffffffffffffffffffffffff161415611462576040517f08c379a000000000000000000000000000000000000000000000000000000000815260040161145990612ffd565b60405180910390fd5b61146d838383611859565b6114786000826111d0565b6114c981600160008673ffffffffffffffffffffffffffffffffffffffff1673ffffffffffffffffffffffffffffffffffffffff16815260200190815260200160002061185e90919063ffffffff16565b5061151b81600160008573ffffffffffffffffffffffffffffffffffffffff1673ffffffffffffffffffffffffffffffffffffffff16815260200190815260200160002061187890919063ffffffff16565b50611532818360026118929092919063ffffffff16565b50808273ffffffffffffffffffffffffffffffffffffffff168473ffffffffffffffffffffffffffffffffffffffff167fddf252ad1be2c89b69c2b068fc378daa952ba7f163c4a11628f55a4df523b3ef60405160405180910390a4505050565b60006115a283600001836118c7565b60001c905092915050565b6000806000806115c08660000186611934565b915091508160001c8160001c8090509350935050509250929050565b60006115ef846000018460001b846119b7565b60001c90509392505050565b600061160982600001611a48565b9050919050565b61162a828260405180602001604052806000815250611a59565b5050565b611637826111ab565b611676576040517f08c379a000000000000000000000000000000000000000000000000000000000815260040161166d9061311d565b60405180910390fd5b8060086000848152602001908152602001600020908051906020019061169d9291906121c7565b505050565b6116ad84848461137c565b6116b984848484611ab4565b6116f8576040517f08c379a00000000000000000000000000000000000000000000000000000000081526004016116ef90612f9d565b60405180910390fd5b50505050565b60606000821415611746576040518060400160405280600181526020017f30000000000000000000000000000000000000000000000000000000000000008152509050611829565b600082905060005b60008214611770578080600101915050600a828161176857fe5b04915061174e565b6060816040519080825280601f01601f1916602001820160405280156117a55781602001600182028036833780820191505090505b50905060006001830390508593505b6000841461182157600a84816117c657fe5b0660300160f81b828280600190039350815181106117e057fe5b60200101907effffffffffffffffffffffffffffffffffffffffffffffffffffffffffffff1916908160001a905350600a848161181957fe5b0493506117b4565b819450505050505b919050565b6000611840836000018360001b611c18565b905092915050565b600081600001805490509050919050565b505050565b6000611870836000018360001b611c3b565b905092915050565b600061188a836000018360001b611d23565b905092915050565b60006118be846000018460001b8473ffffffffffffffffffffffffffffffffffffffff1660001b611d93565b90509392505050565b600081836000018054905011611912576040517f08c379a000000000000000000000000000000000000000000000000000000000815260040161190990612f7d565b60405180910390fd5b82600001828154811061192157fe5b9060005260206000200154905092915050565b60008082846000018054905011611980576040517f08c379a0000000000000000000000000000000000000000000000000000000008152600401611977906130bd565b60405180910390fd5b600084600001848154811061199157fe5b906000526020600020906002020190508060000154816001015492509250509250929050565b60008084600101600085815260200190815260200160002054905060008114158390611a19576040517f08c379a0000000000000000000000000000000000000000000000000000000008152600401611a109190612f5b565b60405180910390fd5b50846000016001820381548110611a2c57fe5b9060005260206000209060020201600101549150509392505050565b600081600001805490509050919050565b611a638383611e6f565b611a706000848484611ab4565b611aaf576040517f08c379a0000000000000000000000000000000000000000000000000000000008152600401611aa690612f9d565b60405180910390fd5b505050565b6000611ad58473ffffffffffffffffffffffffffffffffffffffff16611ffd565b611ae25760019050611c10565b6060611ba963150b7a0260e01b611af76111c8565b888787604051602401611b0d9493929190612ef4565b604051602081830303815290604052907bffffffffffffffffffffffffffffffffffffffffffffffffffffffff19166020820180517bffffffffffffffffffffffffffffffffffffffffffffffffffffffff8381831617835250505050604051806060016040528060328152602001613449603291398773ffffffffffffffffffffffffffffffffffffffff166120109092919063ffffffff16565b9050600081806020019051611bc19190810190612602565b905063150b7a0260e01b7bffffffffffffffffffffffffffffffffffffffffffffffffffffffff1916817bffffffffffffffffffffffffffffffffffffffffffffffffffffffff191614925050505b949350505050565b600080836001016000848152602001908152602001600020541415905092915050565b60008083600101600084815260200190815260200160002054905060008114611d175760006001820390506000600186600001805490500390506000866000018281548110611c8657fe5b9060005260206000200154905080876000018481548110611ca357fe5b9060005260206000200181905550600183018760010160008381526020019081526020016000208190555086600001805480611cdb57fe5b60019003818190600052602060002001600090559055866001016000878152602001908152602001600020600090556001945050505050611d1d565b60009150505b92915050565b6000611d2f8383612028565b611d88578260000182908060018154018082558091505060019003906000526020600020016000909190919091505582600001805490508360010160008481526020019081526020016000208190555060019050611d8d565b600090505b92915050565b6000808460010160008581526020019081526020016000205490506000811415611e3a57846000016040518060400160405280868152602001858152509080600181540180825580915050600190039060005260206000209060020201600090919091909150600082015181600001556020820151816001015550508460000180549050856001016000868152602001908152602001600020819055506001915050611e68565b82856000016001830381548110611e4d57fe5b90600052602060002090600202016001018190555060009150505b9392505050565b600073ffffffffffffffffffffffffffffffffffffffff168273ffffffffffffffffffffffffffffffffffffffff161415611edf576040517f08c379a0000000000000000000000000000000000000000000000000000000008152600401611ed6906130dd565b60405180910390fd5b611ee8816111ab565b15611f28576040517f08c379a0000000000000000000000000000000000000000000000000000000008152600401611f1f90612fdd565b60405180910390fd5b611f3460008383611859565b611f8581600160008573ffffffffffffffffffffffffffffffffffffffff1673ffffffffffffffffffffffffffffffffffffffff16815260200190815260200160002061187890919063ffffffff16565b50611f9c818360026118929092919063ffffffff16565b50808273ffffffffffffffffffffffffffffffffffffffff16600073ffffffffffffffffffffffffffffffffffffffff167fddf252ad1be2c89b69c2b068fc378daa952ba7f163c4a11628f55a4df523b3ef60405160405180910390a45050565b600080823b905060008111915050919050565b606061201f848460008561204b565b90509392505050565b600080836001016000848152602001908152602001600020541415905092915050565b606082471015612090576040517f08c379a00000000000000000000000000000000000000000000000000000000081526004016120879061303d565b60405180910390fd5b61209985611ffd565b6120d8576040517f08c379a00000000000000000000000000000000000000000000000000000000081526004016120cf906131dd565b60405180910390fd5b600060608673ffffffffffffffffffffffffffffffffffffffff1685876040516121029190612e9e565b60006040518083038185875af1925050503d806000811461213f576040519150601f19603f3d011682016040523d82523d6000602084013e612144565b606091505b5091509150612154828286612160565b92505050949350505050565b60608315612170578290506121c0565b6000835111156121835782518084602001fd5b816040517f08c379a00000000000000000000000000000000000000000000000000000000081526004016121b79190612f5b565b60405180910390fd5b9392505050565b828054600181600116156101000203166002900490600052602060002090601f016020900481019282601f1061220857805160ff1916838001178555612236565b82800160010185558215612236579182015b8281111561223557825182559160200191906001019061221a565b5b5090506122439190612247565b5090565b61226991905b8082111561226557600081600090555060010161224d565b5090565b90565b60008135905061227b816133ec565b92915050565b600082601f83011261229257600080fd5b81356122a56122a082613245565b613218565b9150818183526020840193506020810190508360005b838110156122eb57813586016122d18882612388565b8452602084019350602083019250506001810190506122bb565b5050505092915050565b60008135905061230481613403565b92915050565b6000813590506123198161341a565b92915050565b60008151905061232e8161341a565b92915050565b600082601f83011261234557600080fd5b81356123586123538261326d565b613218565b9150808252602083016020830185838301111561237457600080fd5b61237f838284613399565b50505092915050565b600082601f83011261239957600080fd5b81356123ac6123a782613299565b613218565b915080825260208301602083018583830111156123c857600080fd5b6123d3838284613399565b50505092915050565b6000813590506123eb81613431565b92915050565b60006020828403121561240357600080fd5b60006124118482850161226c565b91505092915050565b6000806040838503121561242d57600080fd5b600061243b8582860161226c565b925050602061244c8582860161226c565b9150509250929050565b60008060006060848603121561246b57600080fd5b60006124798682870161226c565b935050602061248a8682870161226c565b925050604061249b868287016123dc565b9150509250925092565b600080600080608085870312156124bb57600080fd5b60006124c98782880161226c565b94505060206124da8782880161226c565b93505060406124eb878288016123dc565b925050606085013567ffffffffffffffff81111561250857600080fd5b61251487828801612334565b91505092959194509250565b6000806040838503121561253357600080fd5b60006125418582860161226c565b9250506020612552858286016122f5565b9150509250929050565b6000806040838503121561256f57600080fd5b600061257d8582860161226c565b925050602061258e858286016123dc565b9150509250929050565b6000602082840312156125aa57600080fd5b600082013567ffffffffffffffff8111156125c457600080fd5b6125d084828501612281565b91505092915050565b6000602082840312156125eb57600080fd5b60006125f98482850161230a565b91505092915050565b60006020828403121561261457600080fd5b60006126228482850161231f565b91505092915050565b60006020828403121561263d57600080fd5b600061264b848285016123dc565b91505092915050565b61265d81613325565b82525050565b61266c81613313565b82525050565b61267b81613337565b82525050565b600061268c826132c5565b61269681856132db565b93506126a68185602086016133a8565b6126af816133db565b840191505092915050565b60006126c5826132c5565b6126cf81856132ec565b93506126df8185602086016133a8565b80840191505092915050565b60006126f6826132d0565b61270081856132f7565b93506127108185602086016133a8565b612719816133db565b840191505092915050565b600061272f826132d0565b6127398185613308565b93506127498185602086016133a8565b80840191505092915050565b60006127626022836132f7565b91507f456e756d657261626c655365743a20696e646578206f7574206f6620626f756e60008301527f64730000000000000000000000000000000000000000000000000000000000006020830152604082019050919050565b60006127c86032836132f7565b91507f4552433732313a207472616e7366657220746f206e6f6e20455243373231526560008301527f63656976657220696d706c656d656e74657200000000000000000000000000006020830152604082019050919050565b600061282e6026836132f7565b91507f4f776e61626c653a206e6577206f776e657220697320746865207a65726f206160008301527f64647265737300000000000000000000000000000000000000000000000000006020830152604082019050919050565b6000612894601c836132f7565b91507f4552433732313a20746f6b656e20616c7265616479206d696e746564000000006000830152602082019050919050565b60006128d46024836132f7565b91507f4552433732313a207472616e7366657220746f20746865207a65726f2061646460008301527f72657373000000000000000000000000000000000000000000000000000000006020830152604082019050919050565b600061293a6019836132f7565b91507f4552433732313a20617070726f766520746f2063616c6c6572000000000000006000830152602082019050919050565b600061297a6026836132f7565b91507f416464726573733a20696e73756666696369656e742062616c616e636520666f60008301527f722063616c6c00000000000000000000000000000000000000000000000000006020830152604082019050919050565b60006129e0602c836132f7565b91507f4552433732313a206f70657261746f7220717565727920666f72206e6f6e657860008301527f697374656e7420746f6b656e00000000000000000000000000000000000000006020830152604082019050919050565b6000612a466038836132f7565b91507f4552433732313a20617070726f76652063616c6c6572206973206e6f74206f7760008301527f6e6572206e6f7220617070726f76656420666f7220616c6c00000000000000006020830152604082019050919050565b6000612aac602a836132f7565b91507f4552433732313a2062616c616e636520717565727920666f7220746865207a6560008301527f726f2061646472657373000000000000000000000000000000000000000000006020830152604082019050919050565b6000612b126022836132f7565b91507f456e756d657261626c654d61703a20696e646578206f7574206f6620626f756e60008301527f64730000000000000000000000000000000000000000000000000000000000006020830152604082019050919050565b6000612b786020836132f7565b91507f4552433732313a206d696e7420746f20746865207a65726f20616464726573736000830152602082019050919050565b6000612bb8602c836132f7565b91507f4552433732313a20617070726f76656420717565727920666f72206e6f6e657860008301527f697374656e7420746f6b656e00000000000000000000000000000000000000006020830152604082019050919050565b6000612c1e602c836132f7565b91507f4552433732314d657461646174613a2055524920736574206f66206e6f6e657860008301527f697374656e7420746f6b656e00000000000000000000000000000000000000006020830152604082019050919050565b6000612c846020836132f7565b91507f4f776e61626c653a2063616c6c6572206973206e6f7420746865206f776e65726000830152602082019050919050565b6000612cc46029836132f7565b91507f4552433732313a207472616e73666572206f6620746f6b656e2074686174206960008301527f73206e6f74206f776e00000000000000000000000000000000000000000000006020830152604082019050919050565b6000612d2a602f836132f7565b91507f4552433732314d657461646174613a2055524920717565727920666f72206e6f60008301527f6e6578697374656e7420746f6b656e00000000000000000000000000000000006020830152604082019050919050565b6000612d906021836132f7565b91507f4552433732313a20617070726f76616c20746f2063757272656e74206f776e6560008301527f72000000000000000000000000000000000000000000000000000000000000006020830152604082019050919050565b6000612df66031836132f7565b91507f4552433732313a207472616e736665722063616c6c6572206973206e6f74206f60008301527f776e6572206e6f7220617070726f7665640000000000000000000000000000006020830152604082019050919050565b6000612e5c601d836132f7565b91507f416464726573733a2063616c6c20746f206e6f6e2d636f6e74726163740000006000830152602082019050919050565b612e988161338f565b82525050565b6000612eaa82846126ba565b915081905092915050565b6000612ec18285612724565b9150612ecd8284612724565b91508190509392505050565b6000602082019050612eee6000830184612663565b92915050565b6000608082019050612f096000830187612654565b612f166020830186612663565b612f236040830185612e8f565b8181036060830152612f358184612681565b905095945050505050565b6000602082019050612f556000830184612672565b92915050565b60006020820190508181036000830152612f7581846126eb565b905092915050565b60006020820190508181036000830152612f9681612755565b9050919050565b60006020820190508181036000830152612fb6816127bb565b9050919050565b60006020820190508181036000830152612fd681612821565b9050919050565b60006020820190508181036000830152612ff681612887565b9050919050565b60006020820190508181036000830152613016816128c7565b9050919050565b600060208201905081810360008301526130368161292d565b9050919050565b600060208201905081810360008301526130568161296d565b9050919050565b60006020820190508181036000830152613076816129d3565b9050919050565b6000602082019050818103600083015261309681612a39565b9050919050565b600060208201905081810360008301526130b681612a9f565b9050919050565b600060208201905081810360008301526130d681612b05565b9050919050565b600060208201905081810360008301526130f681612b6b565b9050919050565b6000602082019050818103600083015261311681612bab565b9050919050565b6000602082019050818103600083015261313681612c11565b9050919050565b6000602082019050818103600083015261315681612c77565b9050919050565b6000602082019050818103600083015261317681612cb7565b9050919050565b6000602082019050818103600083015261319681612d1d565b9050919050565b600060208201905081810360008301526131b681612d83565b9050919050565b600060208201905081810360008301526131d681612de9565b9050919050565b600060208201905081810360008301526131f681612e4f565b9050919050565b60006020820190506132126000830184612e8f565b92915050565b6000604051905081810181811067ffffffffffffffff8211171561323b57600080fd5b8060405250919050565b600067ffffffffffffffff82111561325c57600080fd5b602082029050602081019050919050565b600067ffffffffffffffff82111561328457600080fd5b601f19601f8301169050602081019050919050565b600067ffffffffffffffff8211156132b057600080fd5b601f19601f8301169050602081019050919050565b600081519050919050565b600081519050919050565b600082825260208201905092915050565b600081905092915050565b600082825260208201905092915050565b600081905092915050565b600061331e8261336f565b9050919050565b60006133308261336f565b9050919050565b60008115159050919050565b60007fffffffff0000000000000000000000000000000000000000000000000000000082169050919050565b600073ffffffffffffffffffffffffffffffffffffffff82169050919050565b6000819050919050565b82818337600083830152505050565b60005b838110156133c65780820151818401526020810190506133ab565b838111156133d5576000848401525b50505050565b6000601f19601f8301169050919050565b6133f581613313565b811461340057600080fd5b50565b61340c81613337565b811461341757600080fd5b50565b61342381613343565b811461342e57600080fd5b50565b61343a8161338f565b811461344557600080fd5b5056fe4552433732313a207472616e7366657220746f206e6f6e20455243373231526563656976657220696d706c656d656e7465724552433732313a206f776e657220717565727920666f72206e6f6e6578697374656e7420746f6b656ea26469706673582212207132a3c1eefd95692db534b12020b962ddeb6f8cc5dee8a8d0456d64f0e97fd564736f6c63430006030033",
  "source": "// SPDX-License-Identifier: MIT\npragma solidity 0.6.3;\npragma experimental ABIEncoderV2;\n\nimport \"@openzeppelin/contracts/token/ERC721/ERC721.sol\";\nimport \"@openzeppelin/contracts/access/Ownable.sol\";\n\ncontract SidWarrior is ERC721, Ownable {\n    uint256 public tokenCounter = 0;\n\n    constructor() public ERC721(\"SidWarrior\", \"SID\") {\n        tokenCounter = 0;\n    }\n\n    function createCollectible(string[] memory tokenURIArr) public  {\n        for (uint256 i = 0; i < tokenURIArr.length; i++) {\n            uint256 newItemId = tokenCounter;\n            _safeMint(msg.sender, newItemId);\n            _setTokenURI(newItemId, tokenURIArr[i]);\n            tokenCounter += 1;\n        }\n    }\n}\n",
  "sourcePath": "/home/siddharth/Documents/Ethereum Projects/rand-nft/contracts/SidWarrior.sol",
  "compiler": {
    "name": "solc",
    "version": "0.6.3+commit.8dda9521.Emscripten.clang"
  },
  "schemaVersion": "3.4.0",
  "updatedAt": "2021-09-26T05:42:07.830Z",
  "networkType": "ethereum",
  "devdoc": {
    "methods": {
      "approve(address,uint256)": {
        "details": "See {IERC721-approve}."
      },
      "balanceOf(address)": {
        "details": "See {IERC721-balanceOf}."
      },
      "baseURI()": {
        "details": "Returns the base URI set via {_setBaseURI}. This will be automatically added as a prefix in {tokenURI} to each token's URI, or to the token ID if no specific URI is set for that token ID."
      },
      "getApproved(uint256)": {
        "details": "See {IERC721-getApproved}."
      },
      "isApprovedForAll(address,address)": {
        "details": "See {IERC721-isApprovedForAll}."
      },
      "name()": {
        "details": "See {IERC721Metadata-name}."
      },
      "owner()": {
        "details": "Returns the address of the current owner."
      },
      "ownerOf(uint256)": {
        "details": "See {IERC721-ownerOf}."
      },
      "renounceOwnership()": {
        "details": "Leaves the contract without owner. It will not be possible to call `onlyOwner` functions anymore. Can only be called by the current owner.     * NOTE: Renouncing ownership will leave the contract without an owner, thereby removing any functionality that is only available to the owner."
      },
      "safeTransferFrom(address,address,uint256)": {
        "details": "See {IERC721-safeTransferFrom}."
      },
      "safeTransferFrom(address,address,uint256,bytes)": {
        "details": "See {IERC721-safeTransferFrom}."
      },
      "setApprovalForAll(address,bool)": {
        "details": "See {IERC721-setApprovalForAll}."
      },
      "supportsInterface(bytes4)": {
        "details": "See {IERC165-supportsInterface}.     * Time complexity O(1), guaranteed to always use less than 30 000 gas."
      },
      "symbol()": {
        "details": "See {IERC721Metadata-symbol}."
      },
      "tokenByIndex(uint256)": {
        "details": "See {IERC721Enumerable-tokenByIndex}."
      },
      "tokenOfOwnerByIndex(address,uint256)": {
        "details": "See {IERC721Enumerable-tokenOfOwnerByIndex}."
      },
      "tokenURI(uint256)": {
        "details": "See {IERC721Metadata-tokenURI}."
      },
      "totalSupply()": {
        "details": "See {IERC721Enumerable-totalSupply}."
      },
      "transferFrom(address,address,uint256)": {
        "details": "See {IERC721-transferFrom}."
      },
      "transferOwnership(address)": {
        "details": "Transfers ownership of the contract to a new account (`newOwner`). Can only be called by the current owner."
      }
    }
  },
  "userdoc": {
    "methods": {}
  }
}